{
  "contractName": "BondIssuer",
  "abi": [
    {
      "constant": true,
      "inputs": [],
      "name": "name",
      "outputs": [
        {
          "name": "",
          "type": "string"
        }
      ],
      "payable": false,
      "stateMutability": "view",
      "type": "function"
    },
    {
      "constant": false,
      "inputs": [
        {
          "name": "spender",
          "type": "address"
        },
        {
          "name": "value",
          "type": "uint256"
        }
      ],
      "name": "approve",
      "outputs": [
        {
          "name": "",
          "type": "bool"
        }
      ],
      "payable": false,
      "stateMutability": "nonpayable",
      "type": "function"
    },
    {
      "constant": true,
      "inputs": [],
      "name": "totalSupply",
      "outputs": [
        {
          "name": "",
          "type": "uint256"
        }
      ],
      "payable": false,
      "stateMutability": "view",
      "type": "function"
    },
    {
      "constant": false,
      "inputs": [
        {
          "name": "from",
          "type": "address"
        },
        {
          "name": "to",
          "type": "address"
        },
        {
          "name": "value",
          "type": "uint256"
        }
      ],
      "name": "transferFrom",
      "outputs": [
        {
          "name": "",
          "type": "bool"
        }
      ],
      "payable": false,
      "stateMutability": "nonpayable",
      "type": "function"
    },
    {
      "constant": true,
      "inputs": [],
      "name": "decimals",
      "outputs": [
        {
          "name": "",
          "type": "uint8"
        }
      ],
      "payable": false,
      "stateMutability": "view",
      "type": "function"
    },
    {
      "constant": false,
      "inputs": [
        {
          "name": "spender",
          "type": "address"
        },
        {
          "name": "addedValue",
          "type": "uint256"
        }
      ],
      "name": "increaseAllowance",
      "outputs": [
        {
          "name": "",
          "type": "bool"
        }
      ],
      "payable": false,
      "stateMutability": "nonpayable",
      "type": "function"
    },
    {
      "constant": false,
      "inputs": [
        {
          "name": "to",
          "type": "address"
        },
        {
          "name": "value",
          "type": "uint256"
        }
      ],
      "name": "mint",
      "outputs": [
        {
          "name": "",
          "type": "bool"
        }
      ],
      "payable": false,
      "stateMutability": "nonpayable",
      "type": "function"
    },
    {
      "constant": true,
      "inputs": [
        {
          "name": "owner",
          "type": "address"
        }
      ],
      "name": "balanceOf",
      "outputs": [
        {
          "name": "",
          "type": "uint256"
        }
      ],
      "payable": false,
      "stateMutability": "view",
      "type": "function"
    },
    {
      "constant": true,
      "inputs": [],
      "name": "symbol",
      "outputs": [
        {
          "name": "",
          "type": "string"
        }
      ],
      "payable": false,
      "stateMutability": "view",
      "type": "function"
    },
    {
      "constant": false,
      "inputs": [
        {
          "name": "account",
          "type": "address"
        }
      ],
      "name": "addMinter",
      "outputs": [],
      "payable": false,
      "stateMutability": "nonpayable",
      "type": "function"
    },
    {
      "constant": false,
      "inputs": [],
      "name": "renounceMinter",
      "outputs": [],
      "payable": false,
      "stateMutability": "nonpayable",
      "type": "function"
    },
    {
      "constant": false,
      "inputs": [
        {
          "name": "spender",
          "type": "address"
        },
        {
          "name": "subtractedValue",
          "type": "uint256"
        }
      ],
      "name": "decreaseAllowance",
      "outputs": [
        {
          "name": "",
          "type": "bool"
        }
      ],
      "payable": false,
      "stateMutability": "nonpayable",
      "type": "function"
    },
    {
      "constant": false,
      "inputs": [
        {
          "name": "to",
          "type": "address"
        },
        {
          "name": "value",
          "type": "uint256"
        }
      ],
      "name": "transfer",
      "outputs": [
        {
          "name": "",
          "type": "bool"
        }
      ],
      "payable": false,
      "stateMutability": "nonpayable",
      "type": "function"
    },
    {
      "constant": true,
      "inputs": [
        {
          "name": "account",
          "type": "address"
        }
      ],
      "name": "isMinter",
      "outputs": [
        {
          "name": "",
          "type": "bool"
        }
      ],
      "payable": false,
      "stateMutability": "view",
      "type": "function"
    },
    {
      "constant": true,
      "inputs": [
        {
          "name": "owner",
          "type": "address"
        },
        {
          "name": "spender",
          "type": "address"
        }
      ],
      "name": "allowance",
      "outputs": [
        {
          "name": "",
          "type": "uint256"
        }
      ],
      "payable": false,
      "stateMutability": "view",
      "type": "function"
    },
    {
      "inputs": [
        {
          "name": "totalSupply",
          "type": "uint256"
        },
        {
          "name": "name",
          "type": "string"
        },
        {
          "name": "isin",
          "type": "string"
        },
        {
          "name": "decimals",
          "type": "uint8"
        },
        {
          "name": "faceValue",
          "type": "uint256"
        },
        {
          "name": "maturity",
          "type": "string"
        },
        {
          "name": "coupon",
          "type": "uint256"
        },
        {
          "name": "issuer",
          "type": "address"
        },
        {
          "name": "documentHashes",
          "type": "bytes32[]"
        },
        {
          "name": "investors",
          "type": "address[]"
        },
        {
          "name": "bonds",
          "type": "uint256[]"
        }
      ],
      "payable": false,
      "stateMutability": "nonpayable",
      "type": "constructor"
    },
    {
      "anonymous": false,
      "inputs": [
        {
          "indexed": true,
          "name": "account",
          "type": "address"
        }
      ],
      "name": "MinterAdded",
      "type": "event"
    },
    {
      "anonymous": false,
      "inputs": [
        {
          "indexed": true,
          "name": "account",
          "type": "address"
        }
      ],
      "name": "MinterRemoved",
      "type": "event"
    },
    {
      "anonymous": false,
      "inputs": [
        {
          "indexed": true,
          "name": "from",
          "type": "address"
        },
        {
          "indexed": true,
          "name": "to",
          "type": "address"
        },
        {
          "indexed": false,
          "name": "value",
          "type": "uint256"
        }
      ],
      "name": "Transfer",
      "type": "event"
    },
    {
      "anonymous": false,
      "inputs": [
        {
          "indexed": true,
          "name": "owner",
          "type": "address"
        },
        {
          "indexed": true,
          "name": "spender",
          "type": "address"
        },
        {
          "indexed": false,
          "name": "value",
          "type": "uint256"
        }
      ],
      "name": "Approval",
      "type": "event"
    },
    {
      "constant": false,
      "inputs": [],
      "name": "makePayment",
      "outputs": [
        {
          "name": "",
          "type": "bool"
        }
      ],
      "payable": true,
      "stateMutability": "payable",
      "type": "function"
    },
    {
      "constant": true,
      "inputs": [],
      "name": "getTestValue",
      "outputs": [
        {
          "name": "",
          "type": "uint256"
        }
      ],
      "payable": false,
      "stateMutability": "view",
      "type": "function"
    },
    {
      "constant": false,
      "inputs": [],
      "name": "makeFinalPayment",
      "outputs": [
        {
          "name": "",
          "type": "uint256"
        }
      ],
      "payable": true,
      "stateMutability": "payable",
      "type": "function"
    }
  ],
  "bytecode": "0x60806040523480156200001157600080fd5b50604051620027ab380380620027ab83398101806040526101608110156200003857600080fd5b810190808051906020019092919080516401000000008111156200005b57600080fd5b828101905060208101848111156200007257600080fd5b81518560018202830111640100000000821117156200009057600080fd5b50509291906020018051640100000000811115620000ad57600080fd5b82810190506020810184811115620000c457600080fd5b8151856001820283011164010000000082111715620000e257600080fd5b5050929190602001805190602001909291908051906020019092919080516401000000008111156200011357600080fd5b828101905060208101848111156200012a57600080fd5b81518560018202830111640100000000821117156200014857600080fd5b5050929190602001805190602001909291908051906020019092919080516401000000008111156200017957600080fd5b828101905060208101848111156200019057600080fd5b8151856020820283011164010000000082111715620001ae57600080fd5b50509291906020018051640100000000811115620001cb57600080fd5b82810190506020810184811115620001e257600080fd5b81518560208202830111640100000000821117156200020057600080fd5b505092919060200180516401000000008111156200021d57600080fd5b828101905060208101848111156200023457600080fd5b81518560208202830111640100000000821117156200025257600080fd5b505092919050505089898982600390805190602001906200027592919062000a46565b5081600490805190602001906200028e92919062000a46565b5080600560006101000a81548160ff021916908360ff160217905550505050620002be33620003df60201b60201c565b866007819055508560099080519060200190620002dd92919062000a46565b5084600b8190555083600c60006101000a81548173ffffffffffffffffffffffffffffffffffffffff021916908373ffffffffffffffffffffffffffffffffffffffff16021790555033600d60006101000a81548173ffffffffffffffffffffffffffffffffffffffff021916908373ffffffffffffffffffffffffffffffffffffffff16021790555082600e90805190602001906200037f92919062000acd565b5060c8600881905550620003bc600c60009054906101000a900473ffffffffffffffffffffffffffffffffffffffff168c6200044060201b60201c565b620003ce8282620005a160201b60201c565b505050505050505050505062000c44565b620003fa8160066200067c60201b620019d41790919060201c565b8073ffffffffffffffffffffffffffffffffffffffff167f6ae172837ea30b801fbfcdd4108aa1d5bf8ff775444fd70256b44e6bf3dfc3f660405160405180910390a250565b600073ffffffffffffffffffffffffffffffffffffffff168273ffffffffffffffffffffffffffffffffffffffff1614156200047b57600080fd5b62000497816002546200073260201b6200171d1790919060201c565b600281905550620004f5816000808573ffffffffffffffffffffffffffffffffffffffff1673ffffffffffffffffffffffffffffffffffffffff168152602001908152602001600020546200073260201b6200171d1790919060201c565b6000808473ffffffffffffffffffffffffffffffffffffffff1673ffffffffffffffffffffffffffffffffffffffff168152602001908152602001600020819055508173ffffffffffffffffffffffffffffffffffffffff16600073ffffffffffffffffffffffffffffffffffffffff167fddf252ad1be2c89b69c2b068fc378daa952ba7f163c4a11628f55a4df523b3ef836040518082815260200191505060405180910390a35050565b60008090505b82518110156200061e576200060f600f8281548110620005c357fe5b9060005260206000200160009054906101000a900473ffffffffffffffffffffffffffffffffffffffff16838381518110620005fb57fe5b60200260200101516200075260201b60201c565b508080600101915050620005a7565b50600062000654600d60009054906101000a900473ffffffffffffffffffffffffffffffffffffffff166200077160201b60201c565b146200065f57600080fd5b81600f90805190602001906200067792919062000b1f565b505050565b600073ffffffffffffffffffffffffffffffffffffffff168173ffffffffffffffffffffffffffffffffffffffff161415620006b757600080fd5b620006c98282620007b960201b60201c565b15620006d457600080fd5b60018260000160008373ffffffffffffffffffffffffffffffffffffffff1673ffffffffffffffffffffffffffffffffffffffff16815260200190815260200160002060006101000a81548160ff0219169083151502179055505050565b6000808284019050838110156200074857600080fd5b8091505092915050565b6000620007673384846200084c60201b60201c565b6001905092915050565b60008060008373ffffffffffffffffffffffffffffffffffffffff1673ffffffffffffffffffffffffffffffffffffffff168152602001908152602001600020549050919050565b60008073ffffffffffffffffffffffffffffffffffffffff168273ffffffffffffffffffffffffffffffffffffffff161415620007f557600080fd5b8260000160008373ffffffffffffffffffffffffffffffffffffffff1673ffffffffffffffffffffffffffffffffffffffff16815260200190815260200160002060009054906101000a900460ff16905092915050565b600073ffffffffffffffffffffffffffffffffffffffff168273ffffffffffffffffffffffffffffffffffffffff1614156200088757600080fd5b620008df816000808673ffffffffffffffffffffffffffffffffffffffff1673ffffffffffffffffffffffffffffffffffffffff1681526020019081526020016000205462000a2560201b620015331790919060201c565b6000808573ffffffffffffffffffffffffffffffffffffffff1673ffffffffffffffffffffffffffffffffffffffff1681526020019081526020016000208190555062000979816000808573ffffffffffffffffffffffffffffffffffffffff1673ffffffffffffffffffffffffffffffffffffffff168152602001908152602001600020546200073260201b6200171d1790919060201c565b6000808473ffffffffffffffffffffffffffffffffffffffff1673ffffffffffffffffffffffffffffffffffffffff168152602001908152602001600020819055508173ffffffffffffffffffffffffffffffffffffffff168373ffffffffffffffffffffffffffffffffffffffff167fddf252ad1be2c89b69c2b068fc378daa952ba7f163c4a11628f55a4df523b3ef836040518082815260200191505060405180910390a3505050565b60008282111562000a3557600080fd5b600082840390508091505092915050565b828054600181600116156101000203166002900490600052602060002090601f016020900481019282601f1062000a8957805160ff191683800117855562000aba565b8280016001018555821562000aba579182015b8281111562000ab957825182559160200191906001019062000a9c565b5b50905062000ac9919062000bae565b5090565b82805482825590600052602060002090810192821562000b0c579160200282015b8281111562000b0b57825182559160200191906001019062000aee565b5b50905062000b1b919062000bd6565b5090565b82805482825590600052602060002090810192821562000b9b579160200282015b8281111562000b9a5782518260006101000a81548173ffffffffffffffffffffffffffffffffffffffff021916908373ffffffffffffffffffffffffffffffffffffffff1602179055509160200191906001019062000b40565b5b50905062000baa919062000bfe565b5090565b62000bd391905b8082111562000bcf57600081600090555060010162000bb5565b5090565b90565b62000bfb91905b8082111562000bf757600081600090555060010162000bdd565b5090565b90565b62000c4191905b8082111562000c3d57600081816101000a81549073ffffffffffffffffffffffffffffffffffffffff02191690555060010162000c05565b5090565b90565b611b578062000c546000396000f3fe6080604052600436106101095760003560e01c806395d89b4111610095578063a457c2d711610064578063a457c2d71461058c578063a9059cbb146105ff578063aa271e1a14610672578063d8d79700146106db578063dd62ed3e146106fd57610109565b806395d89b4114610469578063983b2d56146104f9578063986502751461054a578063a420e5d21461056157610109565b8063313ce567116100dc578063313ce567146102cf578063395093511461030057806340c10f191461037357806346458d61146103e657806370a082311461040457610109565b806306fdde031461010e578063095ea7b31461019e57806318160ddd1461021157806323b872dd1461023c575b600080fd5b34801561011a57600080fd5b50610123610782565b6040518080602001828103825283818151815260200191508051906020019080838360005b83811015610163578082015181840152602081019050610148565b50505050905090810190601f1680156101905780820380516001836020036101000a031916815260200191505b509250505060405180910390f35b3480156101aa57600080fd5b506101f7600480360360408110156101c157600080fd5b81019080803573ffffffffffffffffffffffffffffffffffffffff16906020019092919080359060200190929190505050610824565b604051808215151515815260200191505060405180910390f35b34801561021d57600080fd5b5061022661094f565b6040518082815260200191505060405180910390f35b34801561024857600080fd5b506102b56004803603606081101561025f57600080fd5b81019080803573ffffffffffffffffffffffffffffffffffffffff169060200190929190803573ffffffffffffffffffffffffffffffffffffffff16906020019092919080359060200190929190505050610959565b604051808215151515815260200191505060405180910390f35b3480156102db57600080fd5b506102e4610b61565b604051808260ff1660ff16815260200191505060405180910390f35b34801561030c57600080fd5b506103596004803603604081101561032357600080fd5b81019080803573ffffffffffffffffffffffffffffffffffffffff16906020019092919080359060200190929190505050610b78565b604051808215151515815260200191505060405180910390f35b34801561037f57600080fd5b506103cc6004803603604081101561039657600080fd5b81019080803573ffffffffffffffffffffffffffffffffffffffff16906020019092919080359060200190929190505050610dad565b604051808215151515815260200191505060405180910390f35b6103ee610dd5565b6040518082815260200191505060405180910390f35b34801561041057600080fd5b506104536004803603602081101561042757600080fd5b81019080803573ffffffffffffffffffffffffffffffffffffffff169060200190929190505050610fa0565b6040518082815260200191505060405180910390f35b34801561047557600080fd5b5061047e610fe8565b6040518080602001828103825283818151815260200191508051906020019080838360005b838110156104be5780820151818401526020810190506104a3565b50505050905090810190601f1680156104eb5780820380516001836020036101000a031916815260200191505b509250505060405180910390f35b34801561050557600080fd5b506105486004803603602081101561051c57600080fd5b81019080803573ffffffffffffffffffffffffffffffffffffffff16906020019092919050505061108a565b005b34801561055657600080fd5b5061055f6110a8565b005b34801561056d57600080fd5b506105766110b3565b6040518082815260200191505060405180910390f35b34801561059857600080fd5b506105e5600480360360408110156105af57600080fd5b81019080803573ffffffffffffffffffffffffffffffffffffffff169060200190929190803590602001909291905050506110bd565b604051808215151515815260200191505060405180910390f35b34801561060b57600080fd5b506106586004803603604081101561062257600080fd5b81019080803573ffffffffffffffffffffffffffffffffffffffff169060200190929190803590602001909291905050506112f2565b604051808215151515815260200191505060405180910390f35b34801561067e57600080fd5b506106c16004803603602081101561069557600080fd5b81019080803573ffffffffffffffffffffffffffffffffffffffff169060200190929190505050611309565b604051808215151515815260200191505060405180910390f35b6106e3611326565b604051808215151515815260200191505060405180910390f35b34801561070957600080fd5b5061076c6004803603604081101561072057600080fd5b81019080803573ffffffffffffffffffffffffffffffffffffffff169060200190929190803573ffffffffffffffffffffffffffffffffffffffff1690602001909291905050506114ac565b6040518082815260200191505060405180910390f35b606060038054600181600116156101000203166002900480601f01602080910402602001604051908101604052809291908181526020018280546001816001161561010002031660029004801561081a5780601f106107ef5761010080835404028352916020019161081a565b820191906000526020600020905b8154815290600101906020018083116107fd57829003601f168201915b5050505050905090565b60008073ffffffffffffffffffffffffffffffffffffffff168373ffffffffffffffffffffffffffffffffffffffff16141561085f57600080fd5b81600160003373ffffffffffffffffffffffffffffffffffffffff1673ffffffffffffffffffffffffffffffffffffffff16815260200190815260200160002060008573ffffffffffffffffffffffffffffffffffffffff1673ffffffffffffffffffffffffffffffffffffffff168152602001908152602001600020819055508273ffffffffffffffffffffffffffffffffffffffff163373ffffffffffffffffffffffffffffffffffffffff167f8c5be1e5ebec7d5bd14f71427d1e84f3dd0314c0f7b2291e5b200ac8c7c3b925846040518082815260200191505060405180910390a36001905092915050565b6000600254905090565b60006109ea82600160008773ffffffffffffffffffffffffffffffffffffffff1673ffffffffffffffffffffffffffffffffffffffff16815260200190815260200160002060003373ffffffffffffffffffffffffffffffffffffffff1673ffffffffffffffffffffffffffffffffffffffff1681526020019081526020016000205461153390919063ffffffff16565b600160008673ffffffffffffffffffffffffffffffffffffffff1673ffffffffffffffffffffffffffffffffffffffff16815260200190815260200160002060003373ffffffffffffffffffffffffffffffffffffffff1673ffffffffffffffffffffffffffffffffffffffff16815260200190815260200160002081905550610a75848484611553565b3373ffffffffffffffffffffffffffffffffffffffff168473ffffffffffffffffffffffffffffffffffffffff167f8c5be1e5ebec7d5bd14f71427d1e84f3dd0314c0f7b2291e5b200ac8c7c3b925600160008873ffffffffffffffffffffffffffffffffffffffff1673ffffffffffffffffffffffffffffffffffffffff16815260200190815260200160002060003373ffffffffffffffffffffffffffffffffffffffff1673ffffffffffffffffffffffffffffffffffffffff168152602001908152602001600020546040518082815260200191505060405180910390a3600190509392505050565b6000600560009054906101000a900460ff16905090565b60008073ffffffffffffffffffffffffffffffffffffffff168373ffffffffffffffffffffffffffffffffffffffff161415610bb357600080fd5b610c4282600160003373ffffffffffffffffffffffffffffffffffffffff1673ffffffffffffffffffffffffffffffffffffffff16815260200190815260200160002060008673ffffffffffffffffffffffffffffffffffffffff1673ffffffffffffffffffffffffffffffffffffffff1681526020019081526020016000205461171d90919063ffffffff16565b600160003373ffffffffffffffffffffffffffffffffffffffff1673ffffffffffffffffffffffffffffffffffffffff16815260200190815260200160002060008573ffffffffffffffffffffffffffffffffffffffff1673ffffffffffffffffffffffffffffffffffffffff168152602001908152602001600020819055508273ffffffffffffffffffffffffffffffffffffffff163373ffffffffffffffffffffffffffffffffffffffff167f8c5be1e5ebec7d5bd14f71427d1e84f3dd0314c0f7b2291e5b200ac8c7c3b925600160003373ffffffffffffffffffffffffffffffffffffffff1673ffffffffffffffffffffffffffffffffffffffff16815260200190815260200160002060008773ffffffffffffffffffffffffffffffffffffffff1673ffffffffffffffffffffffffffffffffffffffff168152602001908152602001600020546040518082815260200191505060405180910390a36001905092915050565b6000610db833611309565b610dc157600080fd5b610dcb838361173c565b6001905092915050565b6000600c60009054906101000a900473ffffffffffffffffffffffffffffffffffffffff1673ffffffffffffffffffffffffffffffffffffffff163373ffffffffffffffffffffffffffffffffffffffff1614610e3157600080fd5b600c60009054906101000a900473ffffffffffffffffffffffffffffffffffffffff1673ffffffffffffffffffffffffffffffffffffffff16313410610e7657600080fd5b60008090505b600f80549050811015610f9c57600f8181548110610e9657fe5b9060005260206000200160009054906101000a900473ffffffffffffffffffffffffffffffffffffffff1673ffffffffffffffffffffffffffffffffffffffff166108fc610f1a600f8481548110610eea57fe5b9060005260206000200160009054906101000a900473ffffffffffffffffffffffffffffffffffffffff16610fa0565b600b5402610f5e600f8581548110610f2e57fe5b9060005260206000200160009054906101000a900473ffffffffffffffffffffffffffffffffffffffff16610fa0565b60075402019081150290604051600060405180830381858888f19350505050158015610f8e573d6000803e3d6000fd5b508080600101915050610e7c565b5090565b60008060008373ffffffffffffffffffffffffffffffffffffffff1673ffffffffffffffffffffffffffffffffffffffff168152602001908152602001600020549050919050565b606060048054600181600116156101000203166002900480601f0160208091040260200160405190810160405280929190818152602001828054600181600116156101000203166002900480156110805780601f1061105557610100808354040283529160200191611080565b820191906000526020600020905b81548152906001019060200180831161106357829003601f168201915b5050505050905090565b61109333611309565b61109c57600080fd5b6110a58161188e565b50565b6110b1336118e8565b565b6000600854905090565b60008073ffffffffffffffffffffffffffffffffffffffff168373ffffffffffffffffffffffffffffffffffffffff1614156110f857600080fd5b61118782600160003373ffffffffffffffffffffffffffffffffffffffff1673ffffffffffffffffffffffffffffffffffffffff16815260200190815260200160002060008673ffffffffffffffffffffffffffffffffffffffff1673ffffffffffffffffffffffffffffffffffffffff1681526020019081526020016000205461153390919063ffffffff16565b600160003373ffffffffffffffffffffffffffffffffffffffff1673ffffffffffffffffffffffffffffffffffffffff16815260200190815260200160002060008573ffffffffffffffffffffffffffffffffffffffff1673ffffffffffffffffffffffffffffffffffffffff168152602001908152602001600020819055508273ffffffffffffffffffffffffffffffffffffffff163373ffffffffffffffffffffffffffffffffffffffff167f8c5be1e5ebec7d5bd14f71427d1e84f3dd0314c0f7b2291e5b200ac8c7c3b925600160003373ffffffffffffffffffffffffffffffffffffffff1673ffffffffffffffffffffffffffffffffffffffff16815260200190815260200160002060008773ffffffffffffffffffffffffffffffffffffffff1673ffffffffffffffffffffffffffffffffffffffff168152602001908152602001600020546040518082815260200191505060405180910390a36001905092915050565b60006112ff338484611553565b6001905092915050565b600061131f82600661194290919063ffffffff16565b9050919050565b6000600c60009054906101000a900473ffffffffffffffffffffffffffffffffffffffff1673ffffffffffffffffffffffffffffffffffffffff163373ffffffffffffffffffffffffffffffffffffffff161461138257600080fd5b600c60009054906101000a900473ffffffffffffffffffffffffffffffffffffffff1673ffffffffffffffffffffffffffffffffffffffff163134106113c757600080fd5b60008090505b600f805490508110156114a857600f81815481106113e757fe5b9060005260206000200160009054906101000a900473ffffffffffffffffffffffffffffffffffffffff1673ffffffffffffffffffffffffffffffffffffffff166108fc61146b600f848154811061143b57fe5b9060005260206000200160009054906101000a900473ffffffffffffffffffffffffffffffffffffffff16610fa0565b600b54029081150290604051600060405180830381858888f1935050505015801561149a573d6000803e3d6000fd5b5080806001019150506113cd565b5090565b6000600160008473ffffffffffffffffffffffffffffffffffffffff1673ffffffffffffffffffffffffffffffffffffffff16815260200190815260200160002060008373ffffffffffffffffffffffffffffffffffffffff1673ffffffffffffffffffffffffffffffffffffffff16815260200190815260200160002054905092915050565b60008282111561154257600080fd5b600082840390508091505092915050565b600073ffffffffffffffffffffffffffffffffffffffff168273ffffffffffffffffffffffffffffffffffffffff16141561158d57600080fd5b6115de816000808673ffffffffffffffffffffffffffffffffffffffff1673ffffffffffffffffffffffffffffffffffffffff1681526020019081526020016000205461153390919063ffffffff16565b6000808573ffffffffffffffffffffffffffffffffffffffff1673ffffffffffffffffffffffffffffffffffffffff16815260200190815260200160002081905550611671816000808573ffffffffffffffffffffffffffffffffffffffff1673ffffffffffffffffffffffffffffffffffffffff1681526020019081526020016000205461171d90919063ffffffff16565b6000808473ffffffffffffffffffffffffffffffffffffffff1673ffffffffffffffffffffffffffffffffffffffff168152602001908152602001600020819055508173ffffffffffffffffffffffffffffffffffffffff168373ffffffffffffffffffffffffffffffffffffffff167fddf252ad1be2c89b69c2b068fc378daa952ba7f163c4a11628f55a4df523b3ef836040518082815260200191505060405180910390a3505050565b60008082840190508381101561173257600080fd5b8091505092915050565b600073ffffffffffffffffffffffffffffffffffffffff168273ffffffffffffffffffffffffffffffffffffffff16141561177657600080fd5b61178b8160025461171d90919063ffffffff16565b6002819055506117e2816000808573ffffffffffffffffffffffffffffffffffffffff1673ffffffffffffffffffffffffffffffffffffffff1681526020019081526020016000205461171d90919063ffffffff16565b6000808473ffffffffffffffffffffffffffffffffffffffff1673ffffffffffffffffffffffffffffffffffffffff168152602001908152602001600020819055508173ffffffffffffffffffffffffffffffffffffffff16600073ffffffffffffffffffffffffffffffffffffffff167fddf252ad1be2c89b69c2b068fc378daa952ba7f163c4a11628f55a4df523b3ef836040518082815260200191505060405180910390a35050565b6118a28160066119d490919063ffffffff16565b8073ffffffffffffffffffffffffffffffffffffffff167f6ae172837ea30b801fbfcdd4108aa1d5bf8ff775444fd70256b44e6bf3dfc3f660405160405180910390a250565b6118fc816006611a8090919063ffffffff16565b8073ffffffffffffffffffffffffffffffffffffffff167fe94479a9f7e1952cc78f2d6baab678adc1b772d936c6583def489e524cb6669260405160405180910390a250565b60008073ffffffffffffffffffffffffffffffffffffffff168273ffffffffffffffffffffffffffffffffffffffff16141561197d57600080fd5b8260000160008373ffffffffffffffffffffffffffffffffffffffff1673ffffffffffffffffffffffffffffffffffffffff16815260200190815260200160002060009054906101000a900460ff16905092915050565b600073ffffffffffffffffffffffffffffffffffffffff168173ffffffffffffffffffffffffffffffffffffffff161415611a0e57600080fd5b611a188282611942565b15611a2257600080fd5b60018260000160008373ffffffffffffffffffffffffffffffffffffffff1673ffffffffffffffffffffffffffffffffffffffff16815260200190815260200160002060006101000a81548160ff0219169083151502179055505050565b600073ffffffffffffffffffffffffffffffffffffffff168173ffffffffffffffffffffffffffffffffffffffff161415611aba57600080fd5b611ac48282611942565b611acd57600080fd5b60008260000160008373ffffffffffffffffffffffffffffffffffffffff1673ffffffffffffffffffffffffffffffffffffffff16815260200190815260200160002060006101000a81548160ff021916908315150217905550505056fea165627a7a7230582066ae8100947367d46e1d77534b00a2deed1ce378a5086621295b9169f144f41f0029",
  "source": "pragma solidity ^0.5.2;\n\nimport \"../openzeppelin/token/ERC20/ERC20.sol\";\nimport \"../openzeppelin/token/ERC20/ERC20Detailed.sol\";\nimport \"../openzeppelin/token/ERC20/ERC20Mintable.sol\";\n\ncontract BondIssuer is ERC20, ERC20Detailed, ERC20Mintable {\n\n    // assume faceValue is constant throughout the lifetime of the bond\n    uint256 private _faceValue;\n\n    uint256 private _testValue;\n\n\n    // string date i.e. dd/mm/yyyy\n    string private _maturity;\n\n    // calculated from the provided maturity\n    uint256 private _term;\n\n    // normalized to 8 decimal places\n    uint256 private _coupon;\n\n    // msg.sender\n    address private _issuer;\n\n    // the bank allocation the tokens - msg.sender\n    address private _leadBookRunner;\n\n    // sha3 hash of each document associated with this bond\n    bytes32[] private _documentHashes;\n\n    address payable[] private _investors;\n    uint32[] private _bonds;\n\n\n    constructor(\n        uint256 totalSupply,\n        string memory name,\n        string memory isin,\n        uint8 decimals,\n        uint256 faceValue,\n        string memory maturity,\n        uint256 coupon,\n        address issuer,\n        bytes32[] memory documentHashes,\n        address payable[] memory investors,\n        uint256[] memory bonds)\n    public ERC20Detailed(name, isin, decimals) {\n\n        _faceValue = faceValue;\n        _maturity = maturity;\n        _coupon = coupon;\n        _issuer = issuer;\n        _leadBookRunner = msg.sender;\n        _documentHashes = documentHashes;\n        _testValue = 200;\n\n        _mint(_issuer, totalSupply);\n        _createPrimaryMarket(investors, bonds);\n    }\n\n    function makePayment() public payable onlyIssuer returns (bool) {\n        for (uint i=0; i < _investors.length; i++) {\n            _investors[i].transfer(_coupon * balanceOf(_investors[i]));\n        }\n    }\n    function getTestValue() public view returns(uint256){\n        return _testValue;\n    }\n\n    function makeFinalPayment() public payable onlyIssuer returns (uint256) {\n        for (uint i=0; i < _investors.length; i++) {\n            _investors[i].transfer((_faceValue * balanceOf(_investors[i])) + (_coupon * balanceOf(_investors[i])));\n        }\n    }\n\n    function _createPrimaryMarket(address payable[] memory investors, uint256[] memory bonds) private {\n        for (uint i=0; i < investors.length; i++) {\n            transfer(_investors[i], bonds[i]);\n        }\n        require(balanceOf(_leadBookRunner) == 0);\n        _investors = investors;\n\n    }\n\n    modifier onlyIssuer() {\n        require(msg.sender == _issuer);\n        require(msg.value < _issuer.balance);\n        _;\n    }\n}\n",
  "sourcePath": "D:/Test Code/C#/Web Api/BondTemp/PersonalBondIssuanceWebAPI/BondIssuance.SmartContracts/SmartContracts/contracts/web3labs/BondIssuer.sol",
  "compiler": {
    "name": "solc",
    "version": "0.5.8+commit.23d335f2.Emscripten.clang"
  },
  "schemaVersion": "3.0.11",
  "updatedAt": "2019-06-26T01:42:12.887Z",
  "devdoc": {
    "methods": {
      "allowance(address,address)": {
        "details": "Function to check the amount of tokens that an owner allowed to a spender.",
        "params": {
          "owner": "address The address which owns the funds.",
          "spender": "address The address which will spend the funds."
        },
        "return": "A uint256 specifying the amount of tokens still available for the spender."
      },
      "approve(address,uint256)": {
        "details": "Approve the passed address to spend the specified amount of tokens on behalf of msg.sender. Beware that changing an allowance with this method brings the risk that someone may use both the old and the new allowance by unfortunate transaction ordering. One possible solution to mitigate this race condition is to first reduce the spender's allowance to 0 and set the desired value afterwards: https://github.com/ethereum/EIPs/issues/20#issuecomment-263524729",
        "params": {
          "spender": "The address which will spend the funds.",
          "value": "The amount of tokens to be spent."
        }
      },
      "balanceOf(address)": {
        "details": "Gets the balance of the specified address.",
        "params": {
          "owner": "The address to query the balance of."
        },
        "return": "An uint256 representing the amount owned by the passed address."
      },
      "decimals()": {
        "return": "the number of decimals of the token."
      },
      "decreaseAllowance(address,uint256)": {
        "details": "Decrease the amount of tokens that an owner allowed to a spender. approve should be called when allowed_[_spender] == 0. To decrement allowed value is better to use this function to avoid 2 calls (and wait until the first transaction is mined) From MonolithDAO Token.sol Emits an Approval event.",
        "params": {
          "spender": "The address which will spend the funds.",
          "subtractedValue": "The amount of tokens to decrease the allowance by."
        }
      },
      "increaseAllowance(address,uint256)": {
        "details": "Increase the amount of tokens that an owner allowed to a spender. approve should be called when allowed_[_spender] == 0. To increment allowed value is better to use this function to avoid 2 calls (and wait until the first transaction is mined) From MonolithDAO Token.sol Emits an Approval event.",
        "params": {
          "addedValue": "The amount of tokens to increase the allowance by.",
          "spender": "The address which will spend the funds."
        }
      },
      "mint(address,uint256)": {
        "details": "Function to mint tokens",
        "params": {
          "to": "The address that will receive the minted tokens.",
          "value": "The amount of tokens to mint."
        },
        "return": "A boolean that indicates if the operation was successful."
      },
      "name()": {
        "return": "the name of the token."
      },
      "symbol()": {
        "return": "the symbol of the token."
      },
      "totalSupply()": {
        "details": "Total number of tokens in existence"
      },
      "transfer(address,uint256)": {
        "details": "Transfer token for a specified address",
        "params": {
          "to": "The address to transfer to.",
          "value": "The amount to be transferred."
        }
      },
      "transferFrom(address,address,uint256)": {
        "details": "Transfer tokens from one address to another. Note that while this function emits an Approval event, this is not required as per the specification, and other compliant implementations may not emit the event.",
        "params": {
          "from": "address The address which you want to send tokens from",
          "to": "address The address which you want to transfer to",
          "value": "uint256 the amount of tokens to be transferred"
        }
      }
    }
  },
  "userdoc": {
    "methods": {}
  }
}