{
  "contractName": "Hello",
  "abi": [
    {
      "constant": true,
      "inputs": [],
      "name": "message",
      "outputs": [
        {
          "name": "",
          "type": "string"
        }
      ],
      "payable": false,
      "stateMutability": "view",
      "type": "function"
    },
    {
      "inputs": [],
      "payable": false,
      "stateMutability": "nonpayable",
      "type": "constructor"
    },
    {
      "constant": false,
      "inputs": [
        {
          "name": "newMessage",
          "type": "string"
        }
      ],
      "name": "setMessage",
      "outputs": [],
      "payable": false,
      "stateMutability": "nonpayable",
      "type": "function"
    },
    {
      "constant": true,
      "inputs": [],
      "name": "getMessage",
      "outputs": [
        {
          "name": "",
          "type": "string"
        }
      ],
      "payable": false,
      "stateMutability": "view",
      "type": "function"
    }
  ],
  "bytecode": "0x608060405234801561001057600080fd5b506040518060400160405280600681526020017f54696e73687500000000000000000000000000000000000000000000000000008152506000908051906020019061005c929190610062565b50610107565b828054600181600116156101000203166002900490600052602060002090601f016020900481019282601f106100a357805160ff19168380011785556100d1565b828001600101855582156100d1579182015b828111156100d05782518255916020019190600101906100b5565b5b5090506100de91906100e2565b5090565b61010491905b808211156101005760008160009055506001016100e8565b5090565b90565b610432806101166000396000f3fe608060405234801561001057600080fd5b50600436106100415760003560e01c8063368b877214610046578063ce6d41de14610101578063e21f37ce14610184575b600080fd5b6100ff6004803603602081101561005c57600080fd5b810190808035906020019064010000000081111561007957600080fd5b82018360208201111561008b57600080fd5b803590602001918460018302840111640100000000831117156100ad57600080fd5b91908080601f016020809104026020016040519081016040528093929190818152602001838380828437600081840152601f19601f820116905080830192505050505050509192919290505050610207565b005b610109610221565b6040518080602001828103825283818151815260200191508051906020019080838360005b8381101561014957808201518184015260208101905061012e565b50505050905090810190601f1680156101765780820380516001836020036101000a031916815260200191505b509250505060405180910390f35b61018c6102c3565b6040518080602001828103825283818151815260200191508051906020019080838360005b838110156101cc5780820151818401526020810190506101b1565b50505050905090810190601f1680156101f95780820380516001836020036101000a031916815260200191505b509250505060405180910390f35b806000908051906020019061021d929190610361565b5050565b606060008054600181600116156101000203166002900480601f0160208091040260200160405190810160405280929190818152602001828054600181600116156101000203166002900480156102b95780601f1061028e576101008083540402835291602001916102b9565b820191906000526020600020905b81548152906001019060200180831161029c57829003601f168201915b5050505050905090565b60008054600181600116156101000203166002900480601f0160208091040260200160405190810160405280929190818152602001828054600181600116156101000203166002900480156103595780601f1061032e57610100808354040283529160200191610359565b820191906000526020600020905b81548152906001019060200180831161033c57829003601f168201915b505050505081565b828054600181600116156101000203166002900490600052602060002090601f016020900481019282601f106103a257805160ff19168380011785556103d0565b828001600101855582156103d0579182015b828111156103cf5782518255916020019190600101906103b4565b5b5090506103dd91906103e1565b5090565b61040391905b808211156103ff5760008160009055506001016103e7565b5090565b9056fea165627a7a72305820c35f720a08a6b4df94cc94cf1953baa22d0c3507ff40229ab067c8afeca80a0e0029",
  "source": "pragma solidity ^0.5.0;\r\n\r\ncontract Hello {\r\n    string public message;\r\n\r\n     constructor () public{\r\n        message = \"Tinshu\";\r\n    }\r\n\r\n    function setMessage (string memory newMessage) public {\r\n        message = newMessage;        \r\n    }\r\n\r\n     function getMessage()  public view returns (string memory) {\r\n        return message;\r\n    }\r\n}",
  "sourcePath": "d:/Test Code/C#/Web Api/BondTemp/PersonalBondIssuanceWebAPI/BondIssuance.SmartContracts/SmartContracts/contracts/web3labs/hello.sol",
  "compiler": {
    "name": "solc",
    "version": "0.5.8+commit.23d335f2.Emscripten.clang"
  },
  "schemaVersion": "3.0.11",
  "updatedAt": "2019-06-29T02:29:37.915Z",
  "devdoc": {
    "methods": {}
  },
  "userdoc": {
    "methods": {}
  }
}